{
  "_format": "hh-sol-artifact-1",
  "contractName": "Marketplace",
  "sourceName": "src/backend/contracts/Marketplace.sol",
  "abi": [
    {
      "inputs": [
        {
          "internalType": "uint256",
          "name": "_feePercent",
          "type": "uint256"
        }
      ],
      "stateMutability": "nonpayable",
      "type": "constructor"
    },
    {
      "anonymous": false,
      "inputs": [
        {
          "indexed": false,
          "internalType": "uint256",
          "name": "itemId",
          "type": "uint256"
        },
        {
          "indexed": true,
          "internalType": "address",
          "name": "nft",
          "type": "address"
        },
        {
          "indexed": false,
          "internalType": "uint256",
          "name": "tokenId",
          "type": "uint256"
        },
        {
          "indexed": false,
          "internalType": "uint256",
          "name": "price",
          "type": "uint256"
        },
        {
          "indexed": true,
          "internalType": "address",
          "name": "seller",
          "type": "address"
        },
        {
          "indexed": true,
          "internalType": "address",
          "name": "buyer",
          "type": "address"
        }
      ],
      "name": "Bought",
      "type": "event"
    },
    {
      "anonymous": false,
      "inputs": [
        {
          "indexed": false,
          "internalType": "uint256",
          "name": "collectionId",
          "type": "uint256"
        },
        {
          "indexed": true,
          "internalType": "address",
          "name": "nft",
          "type": "address"
        },
        {
          "indexed": false,
          "internalType": "uint256[]",
          "name": "tokenIds",
          "type": "uint256[]"
        },
        {
          "indexed": false,
          "internalType": "uint256",
          "name": "price",
          "type": "uint256"
        },
        {
          "indexed": true,
          "internalType": "address",
          "name": "seller",
          "type": "address"
        }
      ],
      "name": "Offered",
      "type": "event"
    },
    {
      "inputs": [],
      "name": "collectionCount",
      "outputs": [
        {
          "internalType": "uint256",
          "name": "",
          "type": "uint256"
        }
      ],
      "stateMutability": "view",
      "type": "function"
    },
    {
      "inputs": [
        {
          "internalType": "uint256",
          "name": "",
          "type": "uint256"
        }
      ],
      "name": "collections",
      "outputs": [
        {
          "internalType": "uint256",
          "name": "collectionId",
          "type": "uint256"
        },
        {
          "internalType": "string",
          "name": "name",
          "type": "string"
        },
        {
          "internalType": "string",
          "name": "description",
          "type": "string"
        },
        {
          "internalType": "string",
          "name": "location",
          "type": "string"
        },
        {
          "internalType": "string",
          "name": "time",
          "type": "string"
        },
        {
          "internalType": "address",
          "name": "seller",
          "type": "address"
        },
        {
          "internalType": "uint256",
          "name": "firstItemId",
          "type": "uint256"
        },
        {
          "internalType": "uint256",
          "name": "lastItemId",
          "type": "uint256"
        }
      ],
      "stateMutability": "view",
      "type": "function"
    },
    {
      "inputs": [],
      "name": "feeAccount",
      "outputs": [
        {
          "internalType": "address payable",
          "name": "",
          "type": "address"
        }
      ],
      "stateMutability": "view",
      "type": "function"
    },
    {
      "inputs": [],
      "name": "feePercent",
      "outputs": [
        {
          "internalType": "uint256",
          "name": "",
          "type": "uint256"
        }
      ],
      "stateMutability": "view",
      "type": "function"
    },
    {
      "inputs": [
        {
          "internalType": "uint256",
          "name": "_itemId",
          "type": "uint256"
        }
      ],
      "name": "getTotalPrice",
      "outputs": [
        {
          "internalType": "uint256",
          "name": "",
          "type": "uint256"
        }
      ],
      "stateMutability": "view",
      "type": "function"
    },
    {
      "inputs": [],
      "name": "itemCount",
      "outputs": [
        {
          "internalType": "uint256",
          "name": "",
          "type": "uint256"
        }
      ],
      "stateMutability": "view",
      "type": "function"
    },
    {
      "inputs": [
        {
          "internalType": "uint256",
          "name": "",
          "type": "uint256"
        }
      ],
      "name": "items",
      "outputs": [
        {
          "internalType": "uint256",
          "name": "itemId",
          "type": "uint256"
        },
        {
          "internalType": "contract IERC721",
          "name": "nft",
          "type": "address"
        },
        {
          "internalType": "uint256",
          "name": "tokenId",
          "type": "uint256"
        },
        {
          "internalType": "uint256",
          "name": "price",
          "type": "uint256"
        },
        {
          "internalType": "address payable",
          "name": "seller",
          "type": "address"
        },
        {
          "internalType": "bool",
          "name": "sold",
          "type": "bool"
        }
      ],
      "stateMutability": "view",
      "type": "function"
    },
    {
      "inputs": [
        {
          "internalType": "contract IERC721",
          "name": "_nft",
          "type": "address"
        },
        {
          "internalType": "uint256[]",
          "name": "_tokenIds",
          "type": "uint256[]"
        },
        {
          "internalType": "uint256",
          "name": "_price",
          "type": "uint256"
        },
        {
          "internalType": "string",
          "name": "_name",
          "type": "string"
        },
        {
          "internalType": "string",
          "name": "_description",
          "type": "string"
        },
        {
          "internalType": "string",
          "name": "_location",
          "type": "string"
        },
        {
          "internalType": "string",
          "name": "_time",
          "type": "string"
        }
      ],
      "name": "makeItem",
      "outputs": [],
      "stateMutability": "nonpayable",
      "type": "function"
    },
    {
      "inputs": [
        {
          "internalType": "uint256",
          "name": "_itemId",
          "type": "uint256"
        }
      ],
      "name": "purchaseItem",
      "outputs": [],
      "stateMutability": "payable",
      "type": "function"
    }
  ],
  "bytecode": "0x60c06040523480156200001157600080fd5b5060405162001d8838038062001d8883398181016040528101906200003791906200009c565b60016000819055503373ffffffffffffffffffffffffffffffffffffffff1660808173ffffffffffffffffffffffffffffffffffffffff1660601b815250508060a0818152505050620000ec565b6000815190506200009681620000d2565b92915050565b600060208284031215620000af57600080fd5b6000620000bf8482850162000085565b91505092915050565b6000819050919050565b620000dd81620000c8565b8114620000e957600080fd5b50565b60805160601c60a051611c65620001236000396000818161026b015261084d0152600081816102410152610a730152611c656000f3fe6080604052600436106100865760003560e01c8063bfb231d211610059578063bfb231d214610135578063ca7dd37514610177578063d38ea5bf146101b4578063d57f966b146101d0578063fdbda0ec146101fb57610086565b806365e17c9d1461008b5780636bfb0d01146100b65780637fd6f15c146100e15780639d665c961461010c575b600080fd5b34801561009757600080fd5b506100a061023f565b6040516100ad91906113eb565b60405180910390f35b3480156100c257600080fd5b506100cb610263565b6040516100d891906114fd565b60405180910390f35b3480156100ed57600080fd5b506100f6610269565b60405161010391906114fd565b60405180910390f35b34801561011857600080fd5b50610133600480360381019061012e91906110d1565b61028d565b005b34801561014157600080fd5b5061015c600480360381019061015791906111e7565b6107be565b60405161016e96959493929190611556565b60405180910390f35b34801561018357600080fd5b5061019e600480360381019061019991906111e7565b610847565b6040516101ab91906114fd565b60405180910390f35b6101ce60048036038101906101c991906111e7565b6108aa565b005b3480156101dc57600080fd5b506101e5610c78565b6040516101f291906114fd565b60405180910390f35b34801561020757600080fd5b50610222600480360381019061021d91906111e7565b610c7e565b6040516102369897969594939291906115b7565b60405180910390f35b7f000000000000000000000000000000000000000000000000000000000000000081565b60015481565b7f000000000000000000000000000000000000000000000000000000000000000081565b600260005414156102d3576040517f08c379a00000000000000000000000000000000000000000000000000000000081526004016102ca906114dd565b60405180910390fd5b60026000819055506000851161031e576040517f08c379a00000000000000000000000000000000000000000000000000000000081526004016103159061145d565b60405180910390fd5b6000865111610362576040517f08c379a0000000000000000000000000000000000000000000000000000000008152600401610359906114bd565b60405180910390fd5b60026000815480929190610375906119a9565b919050555060005b86518110156105e25760016000815480929190610399906119a9565b91905055508773ffffffffffffffffffffffffffffffffffffffff166323b872dd33308a85815181106103f5577f4e487b7100000000000000000000000000000000000000000000000000000000600052603260045260246000fd5b60200260200101516040518463ffffffff1660e01b815260040161041b93929190611406565b600060405180830381600087803b15801561043557600080fd5b505af1158015610449573d6000803e3d6000fd5b505050506040518060c0016040528060015481526020018973ffffffffffffffffffffffffffffffffffffffff1681526020018883815181106104b5577f4e487b7100000000000000000000000000000000000000000000000000000000600052603260045260246000fd5b602002602001015181526020018781526020013373ffffffffffffffffffffffffffffffffffffffff168152602001600015158152506003600060015481526020019081526020016000206000820151816000015560208201518160010160006101000a81548173ffffffffffffffffffffffffffffffffffffffff021916908373ffffffffffffffffffffffffffffffffffffffff160217905550604082015181600201556060820151816003015560808201518160040160006101000a81548173ffffffffffffffffffffffffffffffffffffffff021916908373ffffffffffffffffffffffffffffffffffffffff16021790555060a08201518160040160146101000a81548160ff02191690831515021790555090505080806105da906119a9565b91505061037d565b5060405180610100016040528060025481526020018581526020018481526020018381526020018281526020013373ffffffffffffffffffffffffffffffffffffffff1681526020016001885160015461063c9190611840565b610646919061175f565b815260200160015481525060046000600254815260200190815260200160002060008201518160000155602082015181600101908051906020019061068c929190610f06565b5060408201518160020190805190602001906106a9929190610f06565b5060608201518160030190805190602001906106c6929190610f06565b5060808201518160040190805190602001906106e3929190610f06565b5060a08201518160050160006101000a81548173ffffffffffffffffffffffffffffffffffffffff021916908373ffffffffffffffffffffffffffffffffffffffff16021790555060c0820151816006015560e082015181600701559050503373ffffffffffffffffffffffffffffffffffffffff168773ffffffffffffffffffffffffffffffffffffffff167fce4c8d9c0a127079209c11865cb70a2cd5cbf72d5a1e40efbc515d0cc6d0f39d60025489896040516107a593929190611518565b60405180910390a3600160008190555050505050505050565b60036020528060005260406000206000915090508060000154908060010160009054906101000a900473ffffffffffffffffffffffffffffffffffffffff16908060020154908060030154908060040160009054906101000a900473ffffffffffffffffffffffffffffffffffffffff16908060040160149054906101000a900460ff16905086565b600060647f00000000000000000000000000000000000000000000000000000000000000006064610878919061175f565b600360008581526020019081526020016000206003015461089991906117e6565b6108a391906117b5565b9050919050565b600260005414156108f0576040517f08c379a00000000000000000000000000000000000000000000000000000000081526004016108e7906114dd565b60405180910390fd5b6002600081905550600061090382610847565b9050600060036000848152602001908152602001600020905060008311801561092e57506001548311155b61096d576040517f08c379a00000000000000000000000000000000000000000000000000000000081526004016109649061149d565b60405180910390fd5b813410156109b0576040517f08c379a00000000000000000000000000000000000000000000000000000000081526004016109a79061147d565b60405180910390fd5b8060040160149054906101000a900460ff1615610a02576040517f08c379a00000000000000000000000000000000000000000000000000000000081526004016109f99061143d565b60405180910390fd5b8060040160009054906101000a900473ffffffffffffffffffffffffffffffffffffffff1673ffffffffffffffffffffffffffffffffffffffff166108fc82600301549081150290604051600060405180830381858888f19350505050158015610a70573d6000803e3d6000fd5b507f000000000000000000000000000000000000000000000000000000000000000073ffffffffffffffffffffffffffffffffffffffff166108fc826003015484610abb9190611840565b9081150290604051600060405180830381858888f19350505050158015610ae6573d6000803e3d6000fd5b5060018160040160146101000a81548160ff0219169083151502179055508060010160009054906101000a900473ffffffffffffffffffffffffffffffffffffffff1673ffffffffffffffffffffffffffffffffffffffff166323b872dd303384600201546040518463ffffffff1660e01b8152600401610b6993929190611406565b600060405180830381600087803b158015610b8357600080fd5b505af1158015610b97573d6000803e3d6000fd5b505050503373ffffffffffffffffffffffffffffffffffffffff168160040160009054906101000a900473ffffffffffffffffffffffffffffffffffffffff1673ffffffffffffffffffffffffffffffffffffffff168260010160009054906101000a900473ffffffffffffffffffffffffffffffffffffffff1673ffffffffffffffffffffffffffffffffffffffff167f8b4c9c8a607d67b321582dd8461041b1dc2ceeca70c8b7f37f8e02095cf2e76d8685600201548660030154604051610c6393929190611651565b60405180910390a45050600160008190555050565b60025481565b6004602052806000526040600020600091509050806000015490806001018054610ca790611946565b80601f0160208091040260200160405190810160405280929190818152602001828054610cd390611946565b8015610d205780601f10610cf557610100808354040283529160200191610d20565b820191906000526020600020905b815481529060010190602001808311610d0357829003601f168201915b505050505090806002018054610d3590611946565b80601f0160208091040260200160405190810160405280929190818152602001828054610d6190611946565b8015610dae5780601f10610d8357610100808354040283529160200191610dae565b820191906000526020600020905b815481529060010190602001808311610d9157829003601f168201915b505050505090806003018054610dc390611946565b80601f0160208091040260200160405190810160405280929190818152602001828054610def90611946565b8015610e3c5780601f10610e1157610100808354040283529160200191610e3c565b820191906000526020600020905b815481529060010190602001808311610e1f57829003601f168201915b505050505090806004018054610e5190611946565b80601f0160208091040260200160405190810160405280929190818152602001828054610e7d90611946565b8015610eca5780601f10610e9f57610100808354040283529160200191610eca565b820191906000526020600020905b815481529060010190602001808311610ead57829003601f168201915b5050505050908060050160009054906101000a900473ffffffffffffffffffffffffffffffffffffffff16908060060154908060070154905088565b828054610f1290611946565b90600052602060002090601f016020900481019282610f345760008555610f7b565b82601f10610f4d57805160ff1916838001178555610f7b565b82800160010185558215610f7b579182015b82811115610f7a578251825591602001919060010190610f5f565b5b509050610f889190610f8c565b5090565b5b80821115610fa5576000816000905550600101610f8d565b5090565b6000610fbc610fb7846116ad565b611688565b90508083825260208201905082856020860282011115610fdb57600080fd5b60005b8581101561100b5781610ff188826110bc565b845260208401935060208301925050600181019050610fde565b5050509392505050565b6000611028611023846116d9565b611688565b90508281526020810184848401111561104057600080fd5b61104b848285611904565b509392505050565b600082601f83011261106457600080fd5b8135611074848260208601610fa9565b91505092915050565b60008135905061108c81611c01565b92915050565b600082601f8301126110a357600080fd5b81356110b3848260208601611015565b91505092915050565b6000813590506110cb81611c18565b92915050565b600080600080600080600060e0888a0312156110ec57600080fd5b60006110fa8a828b0161107d565b975050602088013567ffffffffffffffff81111561111757600080fd5b6111238a828b01611053565b96505060406111348a828b016110bc565b955050606088013567ffffffffffffffff81111561115157600080fd5b61115d8a828b01611092565b945050608088013567ffffffffffffffff81111561117a57600080fd5b6111868a828b01611092565b93505060a088013567ffffffffffffffff8111156111a357600080fd5b6111af8a828b01611092565b92505060c088013567ffffffffffffffff8111156111cc57600080fd5b6111d88a828b01611092565b91505092959891949750929550565b6000602082840312156111f957600080fd5b6000611207848285016110bc565b91505092915050565b600061121c83836113cd565b60208301905092915050565b61123181611886565b82525050565b61124081611874565b82525050565b60006112518261171a565b61125b818561173d565b93506112668361170a565b8060005b8381101561129757815161127e8882611210565b975061128983611730565b92505060018101905061126a565b5085935050505092915050565b6112ad81611898565b82525050565b6112bc816118e0565b82525050565b60006112cd82611725565b6112d7818561174e565b93506112e7818560208601611913565b6112f081611aae565b840191505092915050565b600061130860118361174e565b915061131382611abf565b602082019050919050565b600061132b601f8361174e565b915061133682611ae8565b602082019050919050565b600061134e60338361174e565b915061135982611b11565b604082019050919050565b600061137160128361174e565b915061137c82611b60565b602082019050919050565b600061139460228361174e565b915061139f82611b89565b604082019050919050565b60006113b7601f8361174e565b91506113c282611bd8565b602082019050919050565b6113d6816118d6565b82525050565b6113e5816118d6565b82525050565b60006020820190506114006000830184611228565b92915050565b600060608201905061141b6000830186611237565b6114286020830185611237565b61143560408301846113dc565b949350505050565b60006020820190508181036000830152611456816112fb565b9050919050565b600060208201905081810360008301526114768161131e565b9050919050565b6000602082019050818103600083015261149681611341565b9050919050565b600060208201905081810360008301526114b681611364565b9050919050565b600060208201905081810360008301526114d681611387565b9050919050565b600060208201905081810360008301526114f6816113aa565b9050919050565b600060208201905061151260008301846113dc565b92915050565b600060608201905061152d60008301866113dc565b818103602083015261153f8185611246565b905061154e60408301846113dc565b949350505050565b600060c08201905061156b60008301896113dc565b61157860208301886112b3565b61158560408301876113dc565b61159260608301866113dc565b61159f6080830185611228565b6115ac60a08301846112a4565b979650505050505050565b6000610100820190506115cd600083018b6113dc565b81810360208301526115df818a6112c2565b905081810360408301526115f381896112c2565b9050818103606083015261160781886112c2565b9050818103608083015261161b81876112c2565b905061162a60a0830186611237565b61163760c08301856113dc565b61164460e08301846113dc565b9998505050505050505050565b600060608201905061166660008301866113dc565b61167360208301856113dc565b61168060408301846113dc565b949350505050565b60006116926116a3565b905061169e8282611978565b919050565b6000604051905090565b600067ffffffffffffffff8211156116c8576116c7611a7f565b5b602082029050602081019050919050565b600067ffffffffffffffff8211156116f4576116f3611a7f565b5b6116fd82611aae565b9050602081019050919050565b6000819050602082019050919050565b600081519050919050565b600081519050919050565b6000602082019050919050565b600082825260208201905092915050565b600082825260208201905092915050565b600061176a826118d6565b9150611775836118d6565b9250827fffffffffffffffffffffffffffffffffffffffffffffffffffffffffffffffff038211156117aa576117a96119f2565b5b828201905092915050565b60006117c0826118d6565b91506117cb836118d6565b9250826117db576117da611a21565b5b828204905092915050565b60006117f1826118d6565b91506117fc836118d6565b9250817fffffffffffffffffffffffffffffffffffffffffffffffffffffffffffffffff0483118215151615611835576118346119f2565b5b828202905092915050565b600061184b826118d6565b9150611856836118d6565b925082821015611869576118686119f2565b5b828203905092915050565b600061187f826118b6565b9050919050565b6000611891826118b6565b9050919050565b60008115159050919050565b60006118af82611874565b9050919050565b600073ffffffffffffffffffffffffffffffffffffffff82169050919050565b6000819050919050565b60006118eb826118f2565b9050919050565b60006118fd826118b6565b9050919050565b82818337600083830152505050565b60005b83811015611931578082015181840152602081019050611916565b83811115611940576000848401525b50505050565b6000600282049050600182168061195e57607f821691505b6020821081141561197257611971611a50565b5b50919050565b61198182611aae565b810181811067ffffffffffffffff821117156119a05761199f611a7f565b5b80604052505050565b60006119b4826118d6565b91507fffffffffffffffffffffffffffffffffffffffffffffffffffffffffffffffff8214156119e7576119e66119f2565b5b600182019050919050565b7f4e487b7100000000000000000000000000000000000000000000000000000000600052601160045260246000fd5b7f4e487b7100000000000000000000000000000000000000000000000000000000600052601260045260246000fd5b7f4e487b7100000000000000000000000000000000000000000000000000000000600052602260045260246000fd5b7f4e487b7100000000000000000000000000000000000000000000000000000000600052604160045260246000fd5b6000601f19601f8301169050919050565b7f6974656d20616c726561647920736f6c64000000000000000000000000000000600082015250565b7f5072696365206d7573742062652067726561746572207468616e207a65726f00600082015250565b7f6e6f7420656e6f75676820657468657220746f20636f766572206974656d207060008201527f7269636520616e64206d61726b65742066656500000000000000000000000000602082015250565b7f6974656d20646f65736e27742065786973740000000000000000000000000000600082015250565b7f5175616e74697479206d7573742062652067726561746572207468616e207a6560008201527f726f000000000000000000000000000000000000000000000000000000000000602082015250565b7f5265656e7472616e637947756172643a207265656e7472616e742063616c6c00600082015250565b611c0a816118a4565b8114611c1557600080fd5b50565b611c21816118d6565b8114611c2c57600080fd5b5056fea26469706673582212202f2427ad133654230ef1c870a7af3fa6ed0e262f1e4f70fc976754be2e15faf964736f6c63430008040033",
  "linkReferences": {},
  "deployedLinkReferences": {}
}