{
  "_format": "hh-sol-artifact-1",
  "contractName": "NFT",
  "sourceName": "src/backend/contracts/NFT.sol",
  "abi": [
    {
      "inputs": [],
      "stateMutability": "nonpayable",
      "type": "constructor"
    },
    {
      "anonymous": false,
      "inputs": [
        {
          "indexed": true,
          "internalType": "address",
          "name": "owner",
          "type": "address"
        },
        {
          "indexed": true,
          "internalType": "address",
          "name": "approved",
          "type": "address"
        },
        {
          "indexed": true,
          "internalType": "uint256",
          "name": "tokenId",
          "type": "uint256"
        }
      ],
      "name": "Approval",
      "type": "event"
    },
    {
      "anonymous": false,
      "inputs": [
        {
          "indexed": true,
          "internalType": "address",
          "name": "owner",
          "type": "address"
        },
        {
          "indexed": true,
          "internalType": "address",
          "name": "operator",
          "type": "address"
        },
        {
          "indexed": false,
          "internalType": "bool",
          "name": "approved",
          "type": "bool"
        }
      ],
      "name": "ApprovalForAll",
      "type": "event"
    },
    {
      "anonymous": false,
      "inputs": [
        {
          "indexed": true,
          "internalType": "address",
          "name": "from",
          "type": "address"
        },
        {
          "indexed": true,
          "internalType": "address",
          "name": "to",
          "type": "address"
        },
        {
          "indexed": true,
          "internalType": "uint256",
          "name": "tokenId",
          "type": "uint256"
        }
      ],
      "name": "Transfer",
      "type": "event"
    },
    {
      "inputs": [
        {
          "internalType": "address",
          "name": "to",
          "type": "address"
        },
        {
          "internalType": "uint256",
          "name": "tokenId",
          "type": "uint256"
        }
      ],
      "name": "approve",
      "outputs": [],
      "stateMutability": "nonpayable",
      "type": "function"
    },
    {
      "inputs": [
        {
          "internalType": "address",
          "name": "owner",
          "type": "address"
        }
      ],
      "name": "balanceOf",
      "outputs": [
        {
          "internalType": "uint256",
          "name": "",
          "type": "uint256"
        }
      ],
      "stateMutability": "view",
      "type": "function"
    },
    {
      "inputs": [
        {
          "internalType": "uint256",
          "name": "tokenId",
          "type": "uint256"
        }
      ],
      "name": "getApproved",
      "outputs": [
        {
          "internalType": "address",
          "name": "",
          "type": "address"
        }
      ],
      "stateMutability": "view",
      "type": "function"
    },
    {
      "inputs": [
        {
          "internalType": "address",
          "name": "owner",
          "type": "address"
        },
        {
          "internalType": "address",
          "name": "operator",
          "type": "address"
        }
      ],
      "name": "isApprovedForAll",
      "outputs": [
        {
          "internalType": "bool",
          "name": "",
          "type": "bool"
        }
      ],
      "stateMutability": "view",
      "type": "function"
    },
    {
      "inputs": [
        {
          "internalType": "string",
          "name": "_tokenURI",
          "type": "string"
        },
        {
          "internalType": "uint256",
          "name": "_quanity",
          "type": "uint256"
        }
      ],
      "name": "mint",
      "outputs": [
        {
          "internalType": "uint256",
          "name": "",
          "type": "uint256"
        }
      ],
      "stateMutability": "nonpayable",
      "type": "function"
    },
    {
      "inputs": [],
      "name": "name",
      "outputs": [
        {
          "internalType": "string",
          "name": "",
          "type": "string"
        }
      ],
      "stateMutability": "view",
      "type": "function"
    },
    {
      "inputs": [
        {
          "internalType": "uint256",
          "name": "tokenId",
          "type": "uint256"
        }
      ],
      "name": "ownerOf",
      "outputs": [
        {
          "internalType": "address",
          "name": "",
          "type": "address"
        }
      ],
      "stateMutability": "view",
      "type": "function"
    },
    {
      "inputs": [
        {
          "internalType": "address",
          "name": "from",
          "type": "address"
        },
        {
          "internalType": "address",
          "name": "to",
          "type": "address"
        },
        {
          "internalType": "uint256",
          "name": "tokenId",
          "type": "uint256"
        }
      ],
      "name": "safeTransferFrom",
      "outputs": [],
      "stateMutability": "nonpayable",
      "type": "function"
    },
    {
      "inputs": [
        {
          "internalType": "address",
          "name": "from",
          "type": "address"
        },
        {
          "internalType": "address",
          "name": "to",
          "type": "address"
        },
        {
          "internalType": "uint256",
          "name": "tokenId",
          "type": "uint256"
        },
        {
          "internalType": "bytes",
          "name": "_data",
          "type": "bytes"
        }
      ],
      "name": "safeTransferFrom",
      "outputs": [],
      "stateMutability": "nonpayable",
      "type": "function"
    },
    {
      "inputs": [
        {
          "internalType": "address",
          "name": "operator",
          "type": "address"
        },
        {
          "internalType": "bool",
          "name": "approved",
          "type": "bool"
        }
      ],
      "name": "setApprovalForAll",
      "outputs": [],
      "stateMutability": "nonpayable",
      "type": "function"
    },
    {
      "inputs": [
        {
          "internalType": "bytes4",
          "name": "interfaceId",
          "type": "bytes4"
        }
      ],
      "name": "supportsInterface",
      "outputs": [
        {
          "internalType": "bool",
          "name": "",
          "type": "bool"
        }
      ],
      "stateMutability": "view",
      "type": "function"
    },
    {
      "inputs": [],
      "name": "symbol",
      "outputs": [
        {
          "internalType": "string",
          "name": "",
          "type": "string"
        }
      ],
      "stateMutability": "view",
      "type": "function"
    },
    {
      "inputs": [],
      "name": "tokenCount",
      "outputs": [
        {
          "internalType": "uint256",
          "name": "",
          "type": "uint256"
        }
      ],
      "stateMutability": "view",
      "type": "function"
    },
    {
      "inputs": [
        {
          "internalType": "uint256",
          "name": "tokenId",
          "type": "uint256"
        }
      ],
      "name": "tokenURI",
      "outputs": [
        {
          "internalType": "string",
          "name": "",
          "type": "string"
        }
      ],
      "stateMutability": "view",
      "type": "function"
    },
    {
      "inputs": [
        {
          "internalType": "address",
          "name": "from",
          "type": "address"
        },
        {
          "internalType": "address",
          "name": "to",
          "type": "address"
        },
        {
          "internalType": "uint256",
          "name": "tokenId",
          "type": "uint256"
        }
      ],
      "name": "transferFrom",
      "outputs": [],
      "stateMutability": "nonpayable",
      "type": "function"
    }
  ],
  "bytecode": "0x60806040523480156200001157600080fd5b506040518060400160405280601081526020017f4556454e54204e4654205449434b4554000000000000000000000000000000008152506040518060400160405280600381526020017f454e540000000000000000000000000000000000000000000000000000000000815250816000908051906020019062000096929190620000b8565b508060019080519060200190620000af929190620000b8565b505050620001cd565b828054620000c69062000168565b90600052602060002090601f016020900481019282620000ea576000855562000136565b82601f106200010557805160ff191683800117855562000136565b8280016001018555821562000136579182015b828111156200013557825182559160200191906001019062000118565b5b50905062000145919062000149565b5090565b5b80821115620001645760008160009055506001016200014a565b5090565b600060028204905060018216806200018157607f821691505b602082108114156200019857620001976200019e565b5b50919050565b7f4e487b7100000000000000000000000000000000000000000000000000000000600052602260045260246000fd5b612d1680620001dd6000396000f3fe608060405234801561001057600080fd5b50600436106100f55760003560e01c80636352211e11610097578063a22cb46511610066578063a22cb46514610298578063b88d4fde146102b4578063c87b56dd146102d0578063e985e9c514610300576100f5565b80636352211e146101fc57806370a082311461022c57806395d89b411461025c5780639f181b5e1461027a576100f5565b8063081812fc116100d3578063081812fc14610178578063095ea7b3146101a857806323b872dd146101c457806342842e0e146101e0576100f5565b806301ffc9a7146100fa578063056b01ce1461012a57806306fdde031461015a575b600080fd5b610114600480360381019061010f9190611cdd565b610330565b604051610121919061215a565b60405180910390f35b610144600480360381019061013f9190611d2f565b610412565b60405161015191906123b7565b60405180910390f35b6101626104b0565b60405161016f9190612175565b60405180910390f35b610192600480360381019061018d9190611d83565b610542565b60405161019f91906120f3565b60405180910390f35b6101c260048036038101906101bd9190611ca1565b6105c7565b005b6101de60048036038101906101d99190611b9b565b6106df565b005b6101fa60048036038101906101f59190611b9b565b61073f565b005b61021660048036038101906102119190611d83565b61075f565b60405161022391906120f3565b60405180910390f35b61024660048036038101906102419190611b36565b610811565b60405161025391906123b7565b60405180910390f35b6102646108c9565b6040516102719190612175565b60405180910390f35b61028261095b565b60405161028f91906123b7565b60405180910390f35b6102b260048036038101906102ad9190611c65565b610961565b005b6102ce60048036038101906102c99190611bea565b610977565b005b6102ea60048036038101906102e59190611d83565b6109d9565b6040516102f79190612175565b60405180910390f35b61031a60048036038101906103159190611b5f565b610b2b565b604051610327919061215a565b60405180910390f35b60007f80ac58cd000000000000000000000000000000000000000000000000000000007bffffffffffffffffffffffffffffffffffffffffffffffffffffffff1916827bffffffffffffffffffffffffffffffffffffffffffffffffffffffff191614806103fb57507f5b5e139f000000000000000000000000000000000000000000000000000000007bffffffffffffffffffffffffffffffffffffffffffffffffffffffff1916827bffffffffffffffffffffffffffffffffffffffffffffffffffffffff1916145b8061040b575061040a82610bbf565b5b9050919050565b6000808211610456576040517f08c379a000000000000000000000000000000000000000000000000000000000815260040161044d90612357565b60405180910390fd5b60005b828110156104a4576007600081548092919061047490612670565b919050555061048533600754610c29565b61049160075485610c47565b808061049c90612670565b915050610459565b50600754905092915050565b6060600080546104bf9061260d565b80601f01602080910402602001604051908101604052809291908181526020018280546104eb9061260d565b80156105385780601f1061050d57610100808354040283529160200191610538565b820191906000526020600020905b81548152906001019060200180831161051b57829003601f168201915b5050505050905090565b600061054d82610cbb565b61058c576040517f08c379a000000000000000000000000000000000000000000000000000000000815260040161058390612317565b60405180910390fd5b6004600083815260200190815260200160002060009054906101000a900473ffffffffffffffffffffffffffffffffffffffff169050919050565b60006105d28261075f565b90508073ffffffffffffffffffffffffffffffffffffffff168373ffffffffffffffffffffffffffffffffffffffff161415610643576040517f08c379a000000000000000000000000000000000000000000000000000000000815260040161063a90612377565b60405180910390fd5b8073ffffffffffffffffffffffffffffffffffffffff16610662610d27565b73ffffffffffffffffffffffffffffffffffffffff16148061069157506106908161068b610d27565b610b2b565b5b6106d0576040517f08c379a00000000000000000000000000000000000000000000000000000000081526004016106c790612257565b60405180910390fd5b6106da8383610d2f565b505050565b6106f06106ea610d27565b82610de8565b61072f576040517f08c379a000000000000000000000000000000000000000000000000000000000815260040161072690612397565b60405180910390fd5b61073a838383610ec6565b505050565b61075a83838360405180602001604052806000815250610977565b505050565b6000806002600084815260200190815260200160002060009054906101000a900473ffffffffffffffffffffffffffffffffffffffff169050600073ffffffffffffffffffffffffffffffffffffffff168173ffffffffffffffffffffffffffffffffffffffff161415610808576040517f08c379a00000000000000000000000000000000000000000000000000000000081526004016107ff90612297565b60405180910390fd5b80915050919050565b60008073ffffffffffffffffffffffffffffffffffffffff168273ffffffffffffffffffffffffffffffffffffffff161415610882576040517f08c379a000000000000000000000000000000000000000000000000000000000815260040161087990612277565b60405180910390fd5b600360008373ffffffffffffffffffffffffffffffffffffffff1673ffffffffffffffffffffffffffffffffffffffff168152602001908152602001600020549050919050565b6060600180546108d89061260d565b80601f01602080910402602001604051908101604052809291908181526020018280546109049061260d565b80156109515780601f1061092657610100808354040283529160200191610951565b820191906000526020600020905b81548152906001019060200180831161093457829003601f168201915b5050505050905090565b60075481565b61097361096c610d27565b838361112d565b5050565b610988610982610d27565b83610de8565b6109c7576040517f08c379a00000000000000000000000000000000000000000000000000000000081526004016109be90612397565b60405180910390fd5b6109d38484848461129a565b50505050565b60606109e482610cbb565b610a23576040517f08c379a0000000000000000000000000000000000000000000000000000000008152600401610a1a906122f7565b60405180910390fd5b6000600660008481526020019081526020016000208054610a439061260d565b80601f0160208091040260200160405190810160405280929190818152602001828054610a6f9061260d565b8015610abc5780601f10610a9157610100808354040283529160200191610abc565b820191906000526020600020905b815481529060010190602001808311610a9f57829003601f168201915b505050505090506000610acd6112f6565b9050600081511415610ae3578192505050610b26565b600082511115610b18578082604051602001610b009291906120cf565b60405160208183030381529060405292505050610b26565b610b218461130d565b925050505b919050565b6000600560008473ffffffffffffffffffffffffffffffffffffffff1673ffffffffffffffffffffffffffffffffffffffff16815260200190815260200160002060008373ffffffffffffffffffffffffffffffffffffffff1673ffffffffffffffffffffffffffffffffffffffff16815260200190815260200160002060009054906101000a900460ff16905092915050565b60007f01ffc9a7000000000000000000000000000000000000000000000000000000007bffffffffffffffffffffffffffffffffffffffffffffffffffffffff1916827bffffffffffffffffffffffffffffffffffffffffffffffffffffffff1916149050919050565b610c438282604051806020016040528060008152506113b4565b5050565b610c5082610cbb565b610c8f576040517f08c379a0000000000000000000000000000000000000000000000000000000008152600401610c86906122b7565b60405180910390fd5b80600660008481526020019081526020016000209080519060200190610cb692919061195a565b505050565b60008073ffffffffffffffffffffffffffffffffffffffff166002600084815260200190815260200160002060009054906101000a900473ffffffffffffffffffffffffffffffffffffffff1673ffffffffffffffffffffffffffffffffffffffff1614159050919050565b600033905090565b816004600083815260200190815260200160002060006101000a81548173ffffffffffffffffffffffffffffffffffffffff021916908373ffffffffffffffffffffffffffffffffffffffff160217905550808273ffffffffffffffffffffffffffffffffffffffff16610da28361075f565b73ffffffffffffffffffffffffffffffffffffffff167f8c5be1e5ebec7d5bd14f71427d1e84f3dd0314c0f7b2291e5b200ac8c7c3b92560405160405180910390a45050565b6000610df382610cbb565b610e32576040517f08c379a0000000000000000000000000000000000000000000000000000000008152600401610e2990612237565b60405180910390fd5b6000610e3d8361075f565b90508073ffffffffffffffffffffffffffffffffffffffff168473ffffffffffffffffffffffffffffffffffffffff161480610eac57508373ffffffffffffffffffffffffffffffffffffffff16610e9484610542565b73ffffffffffffffffffffffffffffffffffffffff16145b80610ebd5750610ebc8185610b2b565b5b91505092915050565b8273ffffffffffffffffffffffffffffffffffffffff16610ee68261075f565b73ffffffffffffffffffffffffffffffffffffffff1614610f3c576040517f08c379a0000000000000000000000000000000000000000000000000000000008152600401610f33906121b7565b60405180910390fd5b600073ffffffffffffffffffffffffffffffffffffffff168273ffffffffffffffffffffffffffffffffffffffff161415610fac576040517f08c379a0000000000000000000000000000000000000000000000000000000008152600401610fa3906121f7565b60405180910390fd5b610fb783838361140f565b610fc2600082610d2f565b6001600360008573ffffffffffffffffffffffffffffffffffffffff1673ffffffffffffffffffffffffffffffffffffffff16815260200190815260200160002060008282546110129190612523565b925050819055506001600360008473ffffffffffffffffffffffffffffffffffffffff1673ffffffffffffffffffffffffffffffffffffffff1681526020019081526020016000206000828254611069919061249c565b92505081905550816002600083815260200190815260200160002060006101000a81548173ffffffffffffffffffffffffffffffffffffffff021916908373ffffffffffffffffffffffffffffffffffffffff160217905550808273ffffffffffffffffffffffffffffffffffffffff168473ffffffffffffffffffffffffffffffffffffffff167fddf252ad1be2c89b69c2b068fc378daa952ba7f163c4a11628f55a4df523b3ef60405160405180910390a4611128838383611414565b505050565b8173ffffffffffffffffffffffffffffffffffffffff168373ffffffffffffffffffffffffffffffffffffffff16141561119c576040517f08c379a000000000000000000000000000000000000000000000000000000000815260040161119390612217565b60405180910390fd5b80600560008573ffffffffffffffffffffffffffffffffffffffff1673ffffffffffffffffffffffffffffffffffffffff16815260200190815260200160002060008473ffffffffffffffffffffffffffffffffffffffff1673ffffffffffffffffffffffffffffffffffffffff16815260200190815260200160002060006101000a81548160ff0219169083151502179055508173ffffffffffffffffffffffffffffffffffffffff168373ffffffffffffffffffffffffffffffffffffffff167f17307eab39ab6107e8899845ad3d59bd9653f200f220920489ca2b5937696c318360405161128d919061215a565b60405180910390a3505050565b6112a5848484610ec6565b6112b184848484611419565b6112f0576040517f08c379a00000000000000000000000000000000000000000000000000000000081526004016112e790612197565b60405180910390fd5b50505050565b606060405180602001604052806000815250905090565b606061131882610cbb565b611357576040517f08c379a000000000000000000000000000000000000000000000000000000000815260040161134e90612337565b60405180910390fd5b60006113616112f6565b9050600081511161138157604051806020016040528060008152506113ac565b8061138b846115b0565b60405160200161139c9291906120cf565b6040516020818303038152906040525b915050919050565b6113be838361175d565b6113cb6000848484611419565b61140a576040517f08c379a000000000000000000000000000000000000000000000000000000000815260040161140190612197565b60405180910390fd5b505050565b505050565b505050565b600061143a8473ffffffffffffffffffffffffffffffffffffffff16611937565b156115a3578373ffffffffffffffffffffffffffffffffffffffff1663150b7a02611463610d27565b8786866040518563ffffffff1660e01b8152600401611485949392919061210e565b602060405180830381600087803b15801561149f57600080fd5b505af19250505080156114d057506040513d601f19601f820116820180604052508101906114cd9190611d06565b60015b611553573d8060008114611500576040519150601f19603f3d011682016040523d82523d6000602084013e611505565b606091505b5060008151141561154b576040517f08c379a000000000000000000000000000000000000000000000000000000000815260040161154290612197565b60405180910390fd5b805181602001fd5b63150b7a0260e01b7bffffffffffffffffffffffffffffffffffffffffffffffffffffffff1916817bffffffffffffffffffffffffffffffffffffffffffffffffffffffff1916149150506115a8565b600190505b949350505050565b606060008214156115f8576040518060400160405280600181526020017f30000000000000000000000000000000000000000000000000000000000000008152509050611758565b600082905060005b6000821461162a57808061161390612670565b915050600a8261162391906124f2565b9150611600565b60008167ffffffffffffffff81111561166c577f4e487b7100000000000000000000000000000000000000000000000000000000600052604160045260246000fd5b6040519080825280601f01601f19166020018201604052801561169e5781602001600182028036833780820191505090505b5090505b60008514611751576001826116b79190612523565b9150600a856116c691906126b9565b60306116d2919061249c565b60f81b81838151811061170e577f4e487b7100000000000000000000000000000000000000000000000000000000600052603260045260246000fd5b60200101907effffffffffffffffffffffffffffffffffffffffffffffffffffffffffffff1916908160001a905350600a8561174a91906124f2565b94506116a2565b8093505050505b919050565b600073ffffffffffffffffffffffffffffffffffffffff168273ffffffffffffffffffffffffffffffffffffffff1614156117cd576040517f08c379a00000000000000000000000000000000000000000000000000000000081526004016117c4906122d7565b60405180910390fd5b6117d681610cbb565b15611816576040517f08c379a000000000000000000000000000000000000000000000000000000000815260040161180d906121d7565b60405180910390fd5b6118226000838361140f565b6001600360008473ffffffffffffffffffffffffffffffffffffffff1673ffffffffffffffffffffffffffffffffffffffff1681526020019081526020016000206000828254611872919061249c565b92505081905550816002600083815260200190815260200160002060006101000a81548173ffffffffffffffffffffffffffffffffffffffff021916908373ffffffffffffffffffffffffffffffffffffffff160217905550808273ffffffffffffffffffffffffffffffffffffffff16600073ffffffffffffffffffffffffffffffffffffffff167fddf252ad1be2c89b69c2b068fc378daa952ba7f163c4a11628f55a4df523b3ef60405160405180910390a461193360008383611414565b5050565b6000808273ffffffffffffffffffffffffffffffffffffffff163b119050919050565b8280546119669061260d565b90600052602060002090601f01602090048101928261198857600085556119cf565b82601f106119a157805160ff19168380011785556119cf565b828001600101855582156119cf579182015b828111156119ce5782518255916020019190600101906119b3565b5b5090506119dc91906119e0565b5090565b5b808211156119f95760008160009055506001016119e1565b5090565b6000611a10611a0b846123f7565b6123d2565b905082815260208101848484011115611a2857600080fd5b611a338482856125cb565b509392505050565b6000611a4e611a4984612428565b6123d2565b905082815260208101848484011115611a6657600080fd5b611a718482856125cb565b509392505050565b600081359050611a8881612c84565b92915050565b600081359050611a9d81612c9b565b92915050565b600081359050611ab281612cb2565b92915050565b600081519050611ac781612cb2565b92915050565b600082601f830112611ade57600080fd5b8135611aee8482602086016119fd565b91505092915050565b600082601f830112611b0857600080fd5b8135611b18848260208601611a3b565b91505092915050565b600081359050611b3081612cc9565b92915050565b600060208284031215611b4857600080fd5b6000611b5684828501611a79565b91505092915050565b60008060408385031215611b7257600080fd5b6000611b8085828601611a79565b9250506020611b9185828601611a79565b9150509250929050565b600080600060608486031215611bb057600080fd5b6000611bbe86828701611a79565b9350506020611bcf86828701611a79565b9250506040611be086828701611b21565b9150509250925092565b60008060008060808587031215611c0057600080fd5b6000611c0e87828801611a79565b9450506020611c1f87828801611a79565b9350506040611c3087828801611b21565b925050606085013567ffffffffffffffff811115611c4d57600080fd5b611c5987828801611acd565b91505092959194509250565b60008060408385031215611c7857600080fd5b6000611c8685828601611a79565b9250506020611c9785828601611a8e565b9150509250929050565b60008060408385031215611cb457600080fd5b6000611cc285828601611a79565b9250506020611cd385828601611b21565b9150509250929050565b600060208284031215611cef57600080fd5b6000611cfd84828501611aa3565b91505092915050565b600060208284031215611d1857600080fd5b6000611d2684828501611ab8565b91505092915050565b60008060408385031215611d4257600080fd5b600083013567ffffffffffffffff811115611d5c57600080fd5b611d6885828601611af7565b9250506020611d7985828601611b21565b9150509250929050565b600060208284031215611d9557600080fd5b6000611da384828501611b21565b91505092915050565b611db581612557565b82525050565b611dc481612569565b82525050565b6000611dd582612459565b611ddf818561246f565b9350611def8185602086016125da565b611df8816127a6565b840191505092915050565b6000611e0e82612464565b611e188185612480565b9350611e288185602086016125da565b611e31816127a6565b840191505092915050565b6000611e4782612464565b611e518185612491565b9350611e618185602086016125da565b80840191505092915050565b6000611e7a603283612480565b9150611e85826127b7565b604082019050919050565b6000611e9d602583612480565b9150611ea882612806565b604082019050919050565b6000611ec0601c83612480565b9150611ecb82612855565b602082019050919050565b6000611ee3602483612480565b9150611eee8261287e565b604082019050919050565b6000611f06601983612480565b9150611f11826128cd565b602082019050919050565b6000611f29602c83612480565b9150611f34826128f6565b604082019050919050565b6000611f4c603883612480565b9150611f5782612945565b604082019050919050565b6000611f6f602a83612480565b9150611f7a82612994565b604082019050919050565b6000611f92602983612480565b9150611f9d826129e3565b604082019050919050565b6000611fb5602e83612480565b9150611fc082612a32565b604082019050919050565b6000611fd8602083612480565b9150611fe382612a81565b602082019050919050565b6000611ffb603183612480565b915061200682612aaa565b604082019050919050565b600061201e602c83612480565b915061202982612af9565b604082019050919050565b6000612041602f83612480565b915061204c82612b48565b604082019050919050565b6000612064602283612480565b915061206f82612b97565b604082019050919050565b6000612087602183612480565b915061209282612be6565b604082019050919050565b60006120aa603183612480565b91506120b582612c35565b604082019050919050565b6120c9816125c1565b82525050565b60006120db8285611e3c565b91506120e78284611e3c565b91508190509392505050565b60006020820190506121086000830184611dac565b92915050565b60006080820190506121236000830187611dac565b6121306020830186611dac565b61213d60408301856120c0565b818103606083015261214f8184611dca565b905095945050505050565b600060208201905061216f6000830184611dbb565b92915050565b6000602082019050818103600083015261218f8184611e03565b905092915050565b600060208201905081810360008301526121b081611e6d565b9050919050565b600060208201905081810360008301526121d081611e90565b9050919050565b600060208201905081810360008301526121f081611eb3565b9050919050565b6000602082019050818103600083015261221081611ed6565b9050919050565b6000602082019050818103600083015261223081611ef9565b9050919050565b6000602082019050818103600083015261225081611f1c565b9050919050565b6000602082019050818103600083015261227081611f3f565b9050919050565b6000602082019050818103600083015261229081611f62565b9050919050565b600060208201905081810360008301526122b081611f85565b9050919050565b600060208201905081810360008301526122d081611fa8565b9050919050565b600060208201905081810360008301526122f081611fcb565b9050919050565b6000602082019050818103600083015261231081611fee565b9050919050565b6000602082019050818103600083015261233081612011565b9050919050565b6000602082019050818103600083015261235081612034565b9050919050565b6000602082019050818103600083015261237081612057565b9050919050565b600060208201905081810360008301526123908161207a565b9050919050565b600060208201905081810360008301526123b08161209d565b9050919050565b60006020820190506123cc60008301846120c0565b92915050565b60006123dc6123ed565b90506123e8828261263f565b919050565b6000604051905090565b600067ffffffffffffffff82111561241257612411612777565b5b61241b826127a6565b9050602081019050919050565b600067ffffffffffffffff82111561244357612442612777565b5b61244c826127a6565b9050602081019050919050565b600081519050919050565b600081519050919050565b600082825260208201905092915050565b600082825260208201905092915050565b600081905092915050565b60006124a7826125c1565b91506124b2836125c1565b9250827fffffffffffffffffffffffffffffffffffffffffffffffffffffffffffffffff038211156124e7576124e66126ea565b5b828201905092915050565b60006124fd826125c1565b9150612508836125c1565b92508261251857612517612719565b5b828204905092915050565b600061252e826125c1565b9150612539836125c1565b92508282101561254c5761254b6126ea565b5b828203905092915050565b6000612562826125a1565b9050919050565b60008115159050919050565b60007fffffffff0000000000000000000000000000000000000000000000000000000082169050919050565b600073ffffffffffffffffffffffffffffffffffffffff82169050919050565b6000819050919050565b82818337600083830152505050565b60005b838110156125f85780820151818401526020810190506125dd565b83811115612607576000848401525b50505050565b6000600282049050600182168061262557607f821691505b6020821081141561263957612638612748565b5b50919050565b612648826127a6565b810181811067ffffffffffffffff8211171561266757612666612777565b5b80604052505050565b600061267b826125c1565b91507fffffffffffffffffffffffffffffffffffffffffffffffffffffffffffffffff8214156126ae576126ad6126ea565b5b600182019050919050565b60006126c4826125c1565b91506126cf836125c1565b9250826126df576126de612719565b5b828206905092915050565b7f4e487b7100000000000000000000000000000000000000000000000000000000600052601160045260246000fd5b7f4e487b7100000000000000000000000000000000000000000000000000000000600052601260045260246000fd5b7f4e487b7100000000000000000000000000000000000000000000000000000000600052602260045260246000fd5b7f4e487b7100000000000000000000000000000000000000000000000000000000600052604160045260246000fd5b6000601f19601f8301169050919050565b7f4552433732313a207472616e7366657220746f206e6f6e20455243373231526560008201527f63656976657220696d706c656d656e7465720000000000000000000000000000602082015250565b7f4552433732313a207472616e736665722066726f6d20696e636f72726563742060008201527f6f776e6572000000000000000000000000000000000000000000000000000000602082015250565b7f4552433732313a20746f6b656e20616c7265616479206d696e74656400000000600082015250565b7f4552433732313a207472616e7366657220746f20746865207a65726f2061646460008201527f7265737300000000000000000000000000000000000000000000000000000000602082015250565b7f4552433732313a20617070726f766520746f2063616c6c657200000000000000600082015250565b7f4552433732313a206f70657261746f7220717565727920666f72206e6f6e657860008201527f697374656e7420746f6b656e0000000000000000000000000000000000000000602082015250565b7f4552433732313a20617070726f76652063616c6c6572206973206e6f74206f7760008201527f6e6572206e6f7220617070726f76656420666f7220616c6c0000000000000000602082015250565b7f4552433732313a2062616c616e636520717565727920666f7220746865207a6560008201527f726f206164647265737300000000000000000000000000000000000000000000602082015250565b7f4552433732313a206f776e657220717565727920666f72206e6f6e657869737460008201527f656e7420746f6b656e0000000000000000000000000000000000000000000000602082015250565b7f45524337323155524953746f726167653a2055524920736574206f66206e6f6e60008201527f6578697374656e7420746f6b656e000000000000000000000000000000000000602082015250565b7f4552433732313a206d696e7420746f20746865207a65726f2061646472657373600082015250565b7f45524337323155524953746f726167653a2055524920717565727920666f722060008201527f6e6f6e6578697374656e7420746f6b656e000000000000000000000000000000602082015250565b7f4552433732313a20617070726f76656420717565727920666f72206e6f6e657860008201527f697374656e7420746f6b656e0000000000000000000000000000000000000000602082015250565b7f4552433732314d657461646174613a2055524920717565727920666f72206e6f60008201527f6e6578697374656e7420746f6b656e0000000000000000000000000000000000602082015250565b7f5175616e74697479206d7573742062652067726561746572207468616e207a6560008201527f726f000000000000000000000000000000000000000000000000000000000000602082015250565b7f4552433732313a20617070726f76616c20746f2063757272656e74206f776e6560008201527f7200000000000000000000000000000000000000000000000000000000000000602082015250565b7f4552433732313a207472616e736665722063616c6c6572206973206e6f74206f60008201527f776e6572206e6f7220617070726f766564000000000000000000000000000000602082015250565b612c8d81612557565b8114612c9857600080fd5b50565b612ca481612569565b8114612caf57600080fd5b50565b612cbb81612575565b8114612cc657600080fd5b50565b612cd2816125c1565b8114612cdd57600080fd5b5056fea2646970667358221220110a2f9fc35bd3b1d63b4efb651723d6e816129a28d1d466278460b4e18cb49d64736f6c63430008040033",
  "linkReferences": {},
  "deployedLinkReferences": {}
}